:020000020000FC
:1000000086C020980027009385000093840000E2BA
:1000100006BB002700936F0000270093800002E4D6
:100020000093810008955A98529A08955A9A0CE3C1
:100030000A95F1F75A98089500E206BB06B305FD4C
:1000400001C0FCCF00918600109187000093000151
:100050001093010102E000938100089500E206BBC5
:1000600006B305FD01C0FCCF00918600109187000A
:10007000009302011093030102E4009381000895AC
:1000800000910201109103012091000130910101C2
:10009000021B130B009304011093050144275527FD
:1000A00024E730E00217130730F0021B130B4395CF
:1000B00009F45395F7CF4093060150930701089533
:1000C00000270093850000938400B0DFB5DFC6DF12
:1000D000D7DF089500E00093C50007E60093C40051
:1000E00008E00093C10006E00093C200089510915B
:1000F000C00015FFFCCF0093C60008950AEAF7DFA1
:1001000000910601F4DF00910701F1DF089508E096
:100110000EBF0FEF0DBF259A2D9A73DF84DFDADF54
:10012000CFDFECDF01D0FCCF29E03FEF46EE4A9570
:0C013000F1F73A95D9F72A95C1F7089528
:00000001FF
